:1000000080311528640008007E14803140017F088B
:10001000F600640803190E28A331042B9231F7224D
:1000200076084001FF007E100900803117287830E3
:1000300084009930850062308600013087000030EE
:10004000FF0004309931C6218031F53084009A30A8
:100050008500A0308600013087000030FF0020308E
:100060009931C6218031B6308400293085003A307C
:10007000FE000630FF009931BA218031F701F80106
:10008000F901FA01FB01FC015030840001308500C8
:100090001230FE000030FF009931BA21803120304B
:1000A0008400023085004030FE000030FF009931AE
:1000B000BA217E10400196313D2EA10044089A31AC
:1000C000612280319A31612280314001A200E50134
:1000D00038089931EE2180314001220621062006A0
:1000E0004406A300E50139089931EE218031400131
:1000F000A40043089A31612280319A316122803113
:100100009A31612280314001A500E5013A08993118
:10011000EE2180314001A60043089A3161228031EE
:1001200040012606250624064306A700E5013B08F4
:100130009931EE2180314001A80042089A316122B4
:1001400080319A31612280319A31612280314001BF
:10015000A90042089A31612280319A3161228031AE
:100160004001AA0042089A31612280314001AB006F
:10017000E50142089931EE21803140012B062A0623
:1001800029062806AC00E5013C089931EE218031B2
:100190004001AD0041089A31612280319A316122DB
:1001A00080319A31612280314001AE00E5013D0885
:1001B0009931EE2180314001AF00E5013E089931CF
:1001C000EE21803140012F062E062D062C06270633
:1001D00023064106B0004008B2003F08B100B13527
:1001E000B20DB135B20D31087907B30032087A3D4E
:1001F000B4003308013EB5000030343DB600350888
:100200008600360887003008810044089A31612250
:1002100080319A31612280319A31612280319A3164
:10022000612280314001A0002008B70044089A31C3
:10023000612280319A31612280314001A000200882
:10024000B80043089A31612280319A3161228031AD
:100250009A31612280319A31612280314001A000BF
:100260002008B90042089A31612280319A31612216
:1002700080319A31612280319A316122803140018E
:10028000A0002008BA0042089A31612280319A31D8
:10029000612280314001A0002008BB0042089A3151
:1002A000612280314001A0002008BC0041089A3141
:1002B000612280319A31612280319A31612280310C
:1002C0009A31612280314001A0002008BD00410820
:1002D0009A31612280314001A0002008BE00E50172
:1002E00037089931EE2180314001A00044089A314D
:1002F000612280319A31612280319A3161228031CC
:100300004001A100E50138089931EE21803140011A
:10031000A20044089A316122803140012206210660
:1003200020064406A300E50139089931EE21803109
:100330004001A40043089A31612280319A31612240
:1003400080319A31612280314001A50043089A3101
:10035000612280319A31612280314001A600430838
:100360009A31612280314001A700E50143089931AB
:10037000EE21803140012706260625062406A80026
:10038000E5013A089931EE2180314001A900420887
:100390009A31612280319A31612280319A31612211
:1003A00080314001AA00E5013B089931EE218031FE
:1003B0004001AB00E5013C089931EE21803140015C
:1003C0002B062A0629064206AC00E5013D089931B4
:1003D000EE2180314001AD0041089A316122803127
:1003E0009A31612280319A31612280314001AE0020
:1003F00041089A31612280319A3161228031400175
:10040000AF00E5013E089931EE21803140012F0611
:100410002E062D062C06280623064106B0004008AD
:10042000B2003F08B100B135B20DB135B20D31089F
:100430007907B30032087A3DB4003308023EB500B4
:100440000030343DB6003508860036088700300895
:10045000810044089A31612280319A3161228031D1
:100460009A31612280319A31612280314001A000AD
:100470002008B70043089A31612280319A31612205
:1004800080319A31612280319A316122803140017C
:10049000A0002008B80043089A31612280319A31C7
:1004A000612280314001A0002008B90043089A3140
:1004B000612280314001A0002008BA0042089A3130
:1004C000612280319A31612280319A3161228031FA
:1004D0009A31612280314001A0002008BB0042080F
:1004E0009A31612280314001A0002008BC004108FF
:1004F0009A31612280319A31612280319A316122B0
:1005000080319A31612280314001A0002008BD0075
:1005100041089A31612280319A3161228031400153
:10052000A0002008BE00E50137089931EE21803196
:100530004001A00044089A31612280319A31612241
:1005400080319A31612280314001A10044089A3102
:10055000612280319A31612280314001A200440839
:100560009A31612280314001A300E50144089931AC
:10057000EE21803140012306220621062006A40038
:10058000E50138089931EE2180314001A50043088A
:100590009A31612280319A31612280319A3161220F
:1005A00080314001A600E50139089931EE21803102
:1005B0004001A700E5013A089931EE218031400160
:1005C0002706260625064306A800E5013B089931C3
:1005D000EE2180314001A90042089A316122803128
:1005E0009A31612280319A31612280314001AA0022
:1005F00042089A31612280319A3161228031400172
:10060000AB00E5013C089931EE21803140012B0619
:100610002A0629064206AC00E5013D089931EE2183
:1006200080314001AD0041089A31612280319A3118
:10063000612280319A31612280314001AE00E501B2
:100640003E089931EE2180314001AF0041089A31D6
:10065000612240012F062E062D062C0628062406B0
:100660004106B0004008B2003F08B100B135B20DFC
:10067000B135B20D31087907B30032087A3DB400C4
:100680003308033EB5000030343DB600350886001F
:1006900036088700300881000130BF070030C03DB8
:1006A0009331632B40015F08860060088700413169
:1006B0000108003A03193D2E3C2E08000E3041017E
:1006C000E10061084001E5005F08860060088700DE
:1006D000423101084101E20062084001E6000630B3
:1006E000503E860001308700413F8A00403F0A00AB
:1006F00083310800033040016106031D08000F30FC
:100700004101E10061084001E5005F0886006008E2
:100710008700423101084101E20062084001E60021
:100720000630503E860001308700413F8A00403F3E
:100730000A00833108000E3040016106031D0800E5
:100740005F0886006008870042310D300106031DF6
:1007500008005F0886006008870001080319080088
:10076000D52B0A304101E10061084001E500E601B6
:100770000630503E860001308700413F8A00403FEE
:100780000A008331080009304101E100610840019D
:10079000E500E6010630503E860001308700413F0B
:1007A0008A00403F0A008331080040015F0886004C
:1007B000600887004D310108013A0319B12B033A53
:1007C0000319C32B3C2E08000530400161020318B9
:1007D000080002306102031C080051304101E900A9
:1007E000A230EA00522D96304101E9009830EA002B
:1007F0004001E501E50AE6010630503E8600013081
:100800008700413F8A00403F0A0084310800EE30F3
:100810004101E9009830EA000230E100610840013E
:10082000E500E6010630503E860001308700413F7A
:100830008A00403F0A00843108001F304101E9006E
:100840009930EA000330E10061084001E500E6016B
:100850000630503E860001308700413F8A00403F0D
:100860000A008431080004304101E10061084001C0
:10087000E500E6010630503E860001308700413F2A
:100880008A00403F0A008431ED304101E900A03088
:10089000EA00080005304101E10061084001E5007F
:1008A000E6010630503E860001308700413F8A0055
:1008B000403F0A0084311D304101E900A230EA00C6
:1008C000080006304101E10061084001E5005F08D1
:1008D000860060088700423101084101E200620899
:1008E0004001E6000630503E860001308700413F5F
:1008F0008A00403F0A0084318F2C84304101E90096
:10090000A030EA0008003E304101E900A030EA00D2
:10091000080042304101E900A230EA00080040012D
:100920005F0886006008870042310108003A031919
:100930007D2C023A0319832C892C0800F3304101E5
:10094000E900A130EA000800DE304101E900A130F1
:10095000EA0008000B304101E900A030EA0008007D
:1009600040015F0886006008870043310108003AB3
:1009700003199E2C013A0319A42CAA2C0800083054
:100980004101E10061084001E500E6010630503E0A
:10099000860001308700413F8A00403F0A008431D1
:1009A00032304101E900A130EA000800083041017D
:1009B000E900A230EA00080007304101E1006108C7
:1009C0004001E500E6010630503E86000130870018
:1009D000413F8A00403F0A0084311B304101E90059
:1009E000A130EA0008009F304101E900A130EA008F
:1009F00008005E304101E900A130EA00080008303B
:100A00004101E10061084001E500E6010630503E89
:100A1000860001308700413F8A00403F0A0085314F
:100A200004304101E900A130EA000800BD30410175
:100A3000E900A030EA00080064304101E900A0307C
:100A4000EA000800A3304101E900A030EA000800F4
:100A5000C9304101E900A130EA00080048304101F5
:100A6000E900A130EA000800B4304101E900A130FA
:100A7000EA000800D5304101E900A030EA00080092
:100A800074304101E900A130EA0008008A304101D8
:100A9000E900A130EA000800F7304101E900983090
:100AA000EA00080040015F088600600887004131C5
:100AB000010884001630040203184C2D98310435C7
:100AC000003E8200080008304101E1006108400159
:100AD000E5005F088600600887004431010802389D
:100AE0004101E20062084001E6000630503E860007
:100AF00001308700413F8A00403F0A0085310800ED
:100B000040015F0886006008870041310108043A0F
:100B10000319632D023A0319632D3C2E08000D3092
:100B20004101E10061084001E500E6010630503E68
:100B3000860001308700413F8A00403F0A0085312E
:100B400008000B304101E10061084001E500E601C9
:100B50000630503E860001308700413F8A00403F0A
:100B60000A00853108000C304101E10061084001B4
:100B7000E500E6010630503E860001308700413F27
:100B80008A00403F0A008531080040015F08860066
:100B9000600887004231010884000730040203180E
:100BA0000800983104352C3E8200080040015F089F
:100BB000860060088700463101084101E100E2013A
:100BC00040015F0886006008870045310108410147
:100BD000E300E4016308E400E30161086304E60064
:100BE00062086404E7004201580859040319080028
:100BF00040015F08073ED5000030603DD60041014E
:100C000067084001D800410166084001D70008305C
:100C1000503E860001308700413F8A00403F0A0075
:100C20008631080041016808003A03193F2E013A55
:100C30000319E42B033A0319C52D0D3A03197A2B36
:100C4000183A03193C2E0D3A03199B2B013A03194C
:100C50003C2E053A0319802D3C3A0319D62D0B3A48
:100C600003195E2B033A03193C2E073A03193C2E55
:100C70001F3A0319522B3C2E08009D31E32D9D3164
:100C8000C82D4001B40104303402031808003408B0
:100C9000A000A101A035A10DA035A10D2008790764
:100CA000860021087A3D87000108A2002208B100D1
:100CB0003408A000A101A035A10DA035A10D200888
:100CC0007907A20021087A3DA300220886002308A4
:100CD000870043313408A400A501A435A50DA4352F
:100CE000A50D24087907A60025087A3DA700260847
:100CF00084002708850002310008A8003408A900F4
:100D0000AA01A935AA0DA935AA0D29087907AB00B2
:100D10002A087A3DAC002B0884002C08850001319C
:100D20000008AD003408AE00AF01AE35AF0DAE35F2
:100D3000AF0D2E08790784002F087A3D8500000842
:100D40002D0628060106B0003008B2003408A000C5
:100D5000A101A035A10DA035A10D20087907A200A1
:100D600021087A3DA300220886002308870041312C
:100D70003408A400A501A435A50DA435A50D2408AB
:100D80007907840025087A3D850000080106A60041
:100D90002608B30033089A31612286314001A00051
:100DA0002008B30033083206A0003408A100A201D5
:100DB000A135A20DA135A20D2108790786002208D0
:100DC0007A3D8700200881063408A000A101A035E3
:100DD000A10DA035A10D20087907A20021087A3DB8
:100DE000A300220886002308870042313408A400AB
:100DF000A501A435A50DA435A50D24087907A600E5
:100E000025087A3DA70026088400270885000131BF
:100E100000080106A8002808B30033089A316122AF
:100E200086314001A0002008B30033083206A0003C
:100E30003408A100A201A135A20DA135A20D2108FF
:100E40007907A30022087A3DA4002308860024081D
:100E500087004131200881063408A000A101A03597
:100E6000A10DA035A10D20087907A20021087A3D27
:100E7000A300220886002308870043313408A40019
:100E8000A501A435A50DA435A50D24087907A60054
:100E900025087A3DA700260884002708850002312E
:100EA00000080106A8002808B30033089A3161221F
:100EB00086314001A0002008B30033083206A000AC
:100EC0003408A100A201A135A20DA135A20D21086F
:100ED0007907A30022087A3DA4002308860024088D
:100EE00087004231200881063408A000A101A03506
:100EF000A10DA035A10D20087907A20021087A3D97
:100F0000A300220886002308870043310108310628
:100F1000A4002408B30033089A31612286314001CD
:100F2000A0002008B30033083206A0003408A10056
:100F3000A201A135A20DA135A20D21087907A300B8
:100F400022087A3DA4002308860024088700433144
:100F5000200881060130A0002008B407432E40017C
:100F6000E6010430660203180800E7010430670256
:100F70000318FA2F6608A000A1016708A200A301C8
:100F8000A235A30DA235A30D22087907A4002308DA
:100F90007A3DA5002008240786002108253D87000A
:100FA00001089931982187314001A6006608A70001
:100FB000A8016708A900AA01A935AA0DA935AA0D9B
:100FC00029087907AB002A087A3DAC0027082B07CF
:100FD000AD0028082C3DAE002D0886002E088700A5
:100FE000260881000130A0002008E70704306702CE
:100FF000031CBA2F0130A0002008E607B12F08001B
:10100000FF3FA0002008B70044089A3161228831D0
:101010009A31612288314001A0002008B8004408BC
:101020009A31612288314001A0002008B9004308AC
:101030009A31612288319A31612288319A31612254
:1010400088319A31612288314001A0002008BA001D
:1010500043089A31612288314001A0002008BB007A
:1010600042089A31612288319A31612288319A315D
:10107000612288319A31612240019C316E2C7908BD
:1010800086007A088700413101084001E5006508C3
:10109000E800790886007A08870045310108E500F4
:1010A0007908013EE60000307A3DE70066088600D8
:1010B0006708870065088100790886007A0887003C
:1010C00049310108E5007908053EE60000307A3D27
:1010D000E7006608860067088700650881007908D0
:1010E00086007A0887004D310108E5007908093E3D
:1010F000E60000307A3DE700660886006708870052
:101100006508810079080D3EE50000307A3DE60073
:1011100065088600660887006808810079088600EF
:101120007A08870042310108E5006508E80079087F
:1011300086007A0887004A310108E5007908023EF6
:10114000E60000307A3DE700660886006708870001
:101150006508810079080A3EE50000307A3DE60026
:10116000650886006608870068088100790886009F
:101170007A08870046310108E5006508E80079082B
:1011800086007A0887004E310108E5007908063E9E
:10119000E60000307A3DE7006608860067088700B1
:1011A0006508810079080E3EE50000307A3DE600D2
:1011B000650886006608870068088100790886004F
:1011C0007A08870043310108E5006508E8007908DE
:1011D00086007A0887004F310108E5007908033E50
:1011E000E60000307A3DE700660886006708870061
:1011F00065088100790886007A0887004B3101086C
:10120000E50079080F3EE60000307A3DE700660809
:1012100086006708870065088100790886007A08DB
:10122000870047310108E50079080B3EE6000030F1
:101230007A3DE70066088600670887006508810038
:101240007908073EE50000307A3DE6006508860033
:101250006608870068088100080041016C084201A7
:10126000AC0041016B084201AB0041016E08420134
:10127000A80041016D084201A70000302802063095
:1012800003192702031C08002B0886002C0887007E
:101290000108031D082A2B0886002C08870041310D
:1012A000AA300106031D082A0230AB070030AC3D0E
:1012B0000230A7020030A83B2B0886002C088700CC
:1012C00041310108A000A1012B0886002C088700ED
:1012D0000108A200A3012208A300A2012008220401
:1012E000A90021082304AA002908033EA000003019
:1012F0002A3DA10021082802031D80292008270279
:10130000031CEE292C084001E60042012B08400195
:10131000E50042012908023E4001E7000030420199
:101320002A3D4001E800E901EA019C310C248931A1
:101330004201A0002008A5002908023EA0000030BC
:101340002A3DA10020082B07860021082C3D87009C
:101350000108A2002208A60025082606031DDD2993
:101360000230AB070030AC3D0230A7020030A83B92
:101370002C084001E00042012B084001DF0042013F
:101380002908A00020084001E1009D31B9258931DC
:1013900042012908013EA00000302A3DA10020089A
:1013A000AB072108AC3D2908013EA00000302A3DD2
:1013B000A1002008A7022108202A1030A000200840
:1013C0004001E500E6010630503E8600013087000E
:1013D000413F8A00403F0A008931FE291030A000B9
:1013E00020084001E500E6010630503E860001304D
:1013F0008700413F8A00403F0A00893101304201A5
:10140000AB020030AC3B0130A7070030A83D3D29BE
:101410001030A00020084001E500E6010630503EF3
:10142000860001308700413F8A00403F0A008A3130
:1014300001304201AB070030AC3D0130A702003063
:10144000A83B3D2942019D1C272A1D121D161D087F
:101450003B3086002F3087000108B1003108BB0007
:101460003C3086002F30870001083B0603194B2AC9
:101470009B313A238A31B63086002D3087004001F7
:101480006508C03F6608C13F3C3086002F308700AA
:1014900042013B088100B901B63086002D3087003B
:1014A000160001040319762AB63086002D30870015
:1014B000403F4001B200413FB300B63086002D30BE
:1014C0008700423101084201B100B20131084001F8
:1014D000B400420132084001B5009A31D8228A3165
:1014E000003A0319762A4201B901B90A42013908C2
:1014F000B1003108B6003D3086002F30870001086A
:101500003B06031908003608031908003B08B10020
:1015100031084001E50080304201B200320840014C
:10152000E6003D3086002F30870001089B3188237C
:101530008A314201B3003308BC003D3086002F30B1
:1015400087000108B100B201B109B209B10A03195B
:10155000B20A3108803EB3000030323DB400340896
:10156000803AB50080303502031DB82A3C083302AA
:10157000031CC22A42013C08B100B2013108B70085
:101580003208D82A3D3086002F30870001084201FA
:10159000B100B201B109B209B10A0319B20A3108A6
:1015A000803EB3000030323DB4003308B700340849
:1015B000B8003708B1003108BD003B3086002E303E
:1015C00087003D3084002F30850000084201B100C3
:1015D000B201BB30B3002D30B400310833078400B2
:1015E0003208343D85003D08B50035080319FC2A52
:1015F00012001E00B50BF82A3D3086002F30870000
:10160000010842013D077F39B1003D3086002F308F
:101610008700310881003C083D020318412B3D033F
:10162000FF3A3C07B1003108BA003D08B100B201F1
:101630003B30B3002E30B400310833078600320847
:10164000343D8700B63084002D30850005314201DD
:101650003A08B50035080319312B12001E00B50BEE
:101660002D2B42013A08B1003D3086002F30870013
:1016700031088107B63086002D3087000030C03F2A
:10168000C13F3B30AD002E30AE003C08B100B2018E
:101690003108AF003208B000B63086002D30870028
:1016A0004331413F8A00403F0A008B31080040012E
:1016B00055088600560887000108D90059084101DD
:1016C000B700292DBB01BC01BC0A02304001D90082
:1016D0005908B200BB309C313D2408000230400163
:1016E000D90059084101B800B901B90ABA01BA0ACA
:1016F00003304001D9005908B200B8309C313D2474
:10170000080003304001D90059084101B0003630CB
:101710004001E5009930E600B1309B315F238B3109
:1017200007304001D9005908B200B0309C313D2447
:1017300008004001E50100309A31BC228B314001A4
:10174000E50101309A31BC228B31003099317C2186
:101750008B319931A3218B31400155088600560801
:10176000870042310108D900DA0155088600560881
:10177000870041310108DB00DC015B08DC00DB0194
:1017800059085B044101DB0040015A085C04410137
:10179000DC0005304001D90059084101C3005C0854
:1017A0004001D90059084101C4005B084001D9003B
:1017B00059084101C500DD0104305D02031808002D
:1017C0005D084001D90059084101C600E001083018
:1017D00060020318362C60084001D900DA0141018B
:1017E0005D084001DB00DC01DB35DC0DDB35DC0DA9
:1017F000DB35DC0D59085B07DD005A085C3DDE0077
:1018000041015B0840015D07E50041015C084001C2
:101810005E3DE6009A3113228B314001660841019A
:10182000D900400165084101D80058084001D9009D
:1018300041016035A03E86008701400159088100C2
:10184000410159084001D90003144101600DA03E37
:10185000860087014001590881000130D9005908EC
:101860004101E00708306002031CEB2BA03040016F
:10187000D9005908BB000030BF000030BE00003066
:10188000BD001030BC00B030DA005A08C000A030F3
:10189000DB005B08C100C7309431E7248B31143082
:1018A0004001D9005908B200C3309C313D248B312E
:1018B00001304001D90059084101DD07DC2B40010E
:1018C000550886005608870042310108D900DA0120
:1018D000550886005608870041310108DB00DC010D
:1018E0005B08DC00DB0159085B044101DE004001BC
:1018F0005A085C044101DF00400155088600560883
:101900008700433101087F39D90059084101DA00C5
:101910005A08031D932C5F084201DF0041015E0855
:101920004201DE00AF2C42015F0841015F06031D4A
:101930009D2C42015E0841015E060319AF2C043064
:101940004001D90059084101BD00BE0102304001EB
:10195000D9005908B200BD309C313D240800233025
:1019600041015F02003003195E020318CC2C0430E1
:101970004001D90059084101BF0002304001D9009F
:1019800059084101C00002304001D9005908B20095
:10199000BF309C313D24080040015508043EC5007D
:1019A0000030563DC6000030CA000030C90000308B
:1019B000C8001030C700B030D9005908CB00A030A3
:1019C000DA005A08CC0041015A35203E9331D52324
:1019D0008B31400155088600560887004331811F2E
:1019E000080041015F084001E60041015E08400136
:1019F000E5009A3176228B3141015F084001E60013
:101A000041015E084001E5002030D9005908E70097
:101A10009E317B268B3106304001D90059084101A7
:101A2000D7004001B201B20AD7309C313D240800F2
:101A300004304001D90059084101C100C201C20A65
:101A400002304001D9005908B200C1309C313D2418
:101A5000080041013708003A0319622B013A0319C3
:101A6000812B033A03196E2B073A0319622B033AB1
:101A70000319992B013A03195F2C0F3A0319AC2B68
:101A8000182D080000304001BA000030B9000030C5
:101A9000B8000030B7003A08031D312E3908031D85
:101AA000312E3808031D312E043037020318312E31
:101AB0003808A1003708A000A035A10DA035A10D60
:101AC0007708200784007808213D85000008A200DF
:101AD0003808A4003708A300A335A40DA335A40D2E
:101AE0004030A5002F30A60023082507A7002408B2
:101AF000263DA800270886002808870022088100C4
:101B00003808A1003708A000A035A10DA035A10D0F
:101B10002008013EA2000030213DA30077082207E3
:101B200084007808233D85000008A4003808A6003A
:101B30003708A500A535A60DA535A60D2508013E3B
:101B4000A7000030263DA8004030A9002F30AA0091
:101B500027082907AB0028082A3DAC002B0886007F
:101B60002C088700240881003808A1003708A0004D
:101B7000A035A10DA035A10D2008023EA200003025
:101B8000213DA3007708220784007808233D8500C3
:101B90000008A4003808A6003708A500A535A60D42
:101BA000A535A60D2508023EA7000030263DA80059
:101BB0004030A9002F30AA0027082907AB002808C9
:101BC0002A3DAC002B0886002C08870024088100E1
:101BD0003808A1003708A000A035A10DA035A10D3F
:101BE0002008033EA2000030213DA3007708220711
:101BF00084007808233D85000008A4003808A6006A
:101C00003708A500A535A60DA535A60D2508033E68
:101C1000A7000030263DA8004030A9002F30AA00C0
:101C200027082907AB0028082A3DAC002B088600AE
:101C30002C088700240881000130B7070030B83D28
:101C40000030B93D0030BA3D3A08031D312E390845
:101C5000031D312E3808031D312E04303702031CBA
:101C6000582D3A08031D08003908031D08003808DC
:101C7000031D08002C303702031808003808A100A3
:101C80003708A000A035A10DA035A10D2008FC3E0D
:101C9000A200FF30213DA3004030A4002F30A5005A
:101CA0002208240786002308253D87000108A60096
:101CB0002608B3003808A1003708A000A035A10D00
:101CC000A035A10D2008FD3EA200FF30213DA3005C
:101CD0004030A4002F30A5002208240786002308E6
:101CE000253D87000108A6002608B4003808A10099
:101CF0003708A000A035A10DA035A10D2008FE3E9B
:101D0000A200FF30213DA3004030A4002F30A500E9
:101D10002208240786002308253D87000108A60025
:101D20002608B5003808A1003708A000A035A10D8D
:101D3000A035A10D2008FF3EA200FF30213DA300E9
:101D40004030A4002F30A500220824078600230875
:101D5000253D87000108A6002608B6000330370598
:101D6000A00000303805A10000303905A200003085
:101D70003A05A3002308220421042004031D192F7F
:101D80003308A000A101A201A3012308B200220888
:101D9000B1002108B0002008AF003408A0002008DE
:101DA000B3003508A0002008B4003608A0002008C1
:101DB000B5002F08A0002008B600330899319821FB
:101DC0008D314001A0002008B300340899319821DA
:101DD0008D314001A0002008B400350899319821C8
:101DE0008D314001A0002008B500360899319821B6
:101DF0008D314001A0002008B6003708A000380847
:101E0000A1003908A2003A08A3000230A336A20CB0
:101E1000A10CA00C890B062F210885002008840046
:101E200000308407A030853D00083306A400240854
:101E3000B3003808A1003708A000A035A10DA035D7
:101E4000A10D2008F03EA200FF30213DA30040304C
:101E5000A4002F30A5002208240786002308253D72
:101E6000870001083306A6003808A8003708A70035
:101E7000A735A80DA735A80D4030A9002F30AA001E
:101E800027082907AB0028082A3DAC002B0886004C
:101E90002C088700260881003808A1003708A00018
:101EA000A035A10DA035A10D2008F13EA200FF3004
:101EB000213DA3004030A4002F30A50022082407B4
:101EC00086002308253D870001083406A60038084F
:101ED000A8003708A700A735A80DA735A80D270823
:101EE000013EA9000030283DAA004030AB002F3051
:101EF000AC0029082B07AD002A082C3DAE002D08A8
:101F000086002E088700260881003808A1003708BF
:101F1000A000A035A10DA035A10D2008F23EA20021
:101F2000FF30213DA3004030A4002F30A50022083F
:101F3000240786002308253D870001083506A600F2
:101F40003808A8003708A700A735A80DA735A80DA1
:101F50002708023EA9000030283DAA004030AB000F
:101F60002F30AC0029082B07AD002A082C3DAE000D
:101F70002D0886002E088700260881003808A10059
:101F80003708A000A035A10DA035A10D2008F33E13
:101F9000A200FF30213DA3004030A4002F30A50057
:101FA0002208240786002308253D870001083606FD
:101FB000A6003808A8003708A700A735A80DA73540
:101FC000A80D2708033EA9000030283DAA00403094
:101FD000AB002F30AC0029082B07AD002A082C3DA0
:101FE000AE002D0886002E088700260881000130EB
:101FF000B7070030B83D0030B93D0030BA3D312E52
:10200000523409346A34D53430343634A534383453
:10201000BF344034A3349E348134F334D734FB349A
:102020007C34E334393482349B342F34FF348734A6
:1020300034348E3443344434C434DE34E934CB3461
:1020400054347B3494343234A634C23423343D3493
:10205000EE344C3495340B344234FA34C3344E34B9
:1020600008342E34A13466342834D9342434B234BC
:1020700076345B34A23449346D348B34D134253416
:102080007234F834F6346434863468349834163450
:10209000D434A4345C34CC345D346534B6349234F6
:1020A0006C34703448345034FD34ED34B934DA349F
:1020B0005E34153446345734A7348D349D3484341B
:1020C0009034D834AB3400348C34BC34D3340A3438
:1020D000F734E43458340534B834B3344534063472
:1020E000D0342C341E348F34CA343F340F3402348D
:1020F000C134AF34BD340334013413348A346B3407
:102100003A349134113441344F346734DC34EA3496
:102110009734F234CF34CE34F034B434E6347334FC
:102120009634AC3474342234E734AD3435348534E9
:10213000E234F9343734E8341C347534DF346E3427
:102140004734F1341A3471341D342934C534893498
:102150006F34B73462340E34AA341834BE341B34AE
:10216000FC3456343E344B34C634D23479342034C3
:102170009A34DB34C034FE347834CD345A34F434F9
:102180001F34DD34A834333488340734C734313451
:10219000B13412341034593427348034EC345F3481
:1021A000603451347F34A9341934B5344A340D3491
:1021B0002D34E5347A349F349334C9349C34EF346D
:1021C000A034E0343B344D34AE342A34F534B034EA
:1021D000C834EB34BB343C348334533499346134E5
:1021E00017342B3404347E34BA347734D63426345E
:1021F000E134693414346334553421340C347D347F
:1022000063347C3477347B34F2346B346F34C534CC
:102210003034013467342B34FE34D734AB34763465
:10222000CA348234C9347D34FA3459344734F034F2
:10223000AD34D434A234AF349C34A4347234C034BA
:10224000B734FD349334263436343F34F734CC3449
:102250003434A534E534F1347134D83431341534A0
:102260000434C7342334C3341834963405349A34D0
:10227000073412348034E234EB342734B23475340A
:10228000093483342C341A341B346E345A34A03459
:1022900052343B34D634B3342934E3342F348434C9
:1022A0005334D1340034ED342034FC34B1345B3455
:1022B0006A34CB34BE3439344A344C345834CF3495
:1022C000D034EF34AA34FB3443344D3433348534C2
:1022D0004534F93402347F3450343C349F34A834CC
:1022E0005134A33440348F3492349D343834F5342F
:1022F000BC34B634DA3421341034FF34F334D234FD
:10230000CD340C341334EC345F3497344434173404
:10231000C434A7347E343D3464345D3419347334AA
:10232000603481344F34DC3422342A34903488349D
:102330004634EE34B8341434DE345E340B34DB34DB
:10234000E03432343A340A344934063424345C34C8
:10235000C234D334AC34623491349534E4347934B7
:10236000E734C83437346D348D34D5344E34A93421
:102370006C345634F434EA3465347A34AE34083488
:10238000BA34783425342E341C34A634B434C634EC
:10239000E834DD3474341F344B34BD348B348A3428
:1023A00070343E34B534663448340334F6340E3475
:1023B000613435345734B9348634C1341D349E34D5
:1023C000E134F834983411346934D9348E34943487
:1023D0009B341E348734E934CE3455342834DF340A
:1023E0008C34A13489340D34BF34E634423468343B
:1023F000413499342D340F34B0345434BB34163452
:10240000FF3FFF3F4001EE00EF0165086F02031838
:102410003B2A6F086E07E600660886008701010800
:10242000E7003E3086002F3087000108E800E90110
:10243000BB30EA002E30EB0068086A07EC00690840
:102440006B3DED006C0886006D0887006708810011
:102450003E3086002F3087000108013E7F39E600BC
:102460003E3086002F308700660881000130E6008C
:102470006608EF07052A4E01191608004001E7001B
:102480008E2A0130E600650A462AE635890B452A80
:1024900066080C0503194E2A0130080000300800B8
:1024A0000130E600650A552AE635890B542A66088C
:1024B0000D0503195D2A01300800003008000130C5
:1024C000E600650A642AE635890B632A66080E056C
:1024D00003196C2A01300800003008000130E600C2
:1024E000650A732AE635890B722A66080F050319F7
:1024F0007B2A01300800003008000130E600650A40
:10250000822AE635890B812A6608100503198A2A72
:10251000013008000030080000300800670884001F
:102520000530040203188C2A98310435C83E820015
:1025300008004001E500E6010430660203180800C7
:10254000E701043067020318F22A6708A000A1011E
:102550006608A200A301A235A30DA235A30D65084C
:10256000A400A501A435A50DA435A50DA435A50D80
:10257000A435A50D22082407A6002308253DA700A1
:1025800020082607A8002108273DA9004030AA00FE
:102590002F30AB0028082A07860029082B3D87002A
:1025A0000108AC006708AD00AE016608AF00B001DD
:1025B000AF35B00DAF35B00D2F087907B100300839
:1025C0007A3DB2002D08310786002E08323D870083
:1025D0002C0881060130A0002008E70704306702BC
:1025E000031CA52A0130A0002008E6079C2A4E0102
:1025F0008F1E212B3B3086002F3087000108F00012
:10260000F101BB30F2002D30F30070087207F400C6
:102610007108733DF5007408860075088700420153
:10262000190881003B3086002F3087000108013EE9
:102630007F39F0003B3086002F3087007008810022
:10264000F72A0F1E512B3F3086002F3087003E3077
:1026500084002F308500000801060319512B3F30FC
:1026600086002F3087000108F000F101BB30F20036
:102670002E30F3007008720786007108733D8700E2
:10268000010842019A003F3086002F308700010880
:10269000013E7F39F0003F3086002F308700700800
:1026A00081003E3086002F3087003F3084002F307D
:1026B000850000080106031D08004E0119120800DC
:1026C0004001BF01C0014008803AA00080302002D4
:1026D000031D6C2B04303F02031808004001400822
:1026E000A1003F08A000A035A10DA035A10D200834
:1026F0007907860021087A3D87000108A200220898
:10270000C1004008A1003F08A000A035A10DA035E0
:10271000A10D20087907A20021087A3DA300220814
:1027200086002308870041310108A4002408C20064
:102730004008A1003F08A000A035A10DA035A10DC3
:1027400020087907A20021087A3DA300220886000C
:102750002308870042310108A4002408C300400870
:10276000A1003F08A000A035A10DA035A10D2008B3
:102770007907A20021087A3DA300220886002308D9
:10278000870043310108A4002408C40044089A319A
:10279000612293319A31612293319A3161229331CE
:1027A0009A3161224001883101284001D400470854
:1027B0000F39CD004D08D3004B080319E62B4B0809
:1027C000F7000130F8008D314225933140014C086B
:1027D0000319EF2B4C084201E0000130E1004001F9
:1027E000D101D2015108CD005208CE00CF01D00155
:1027F0004A085002031D062C49084F02031D062CEF
:1028000048084E02031D062C47084D020318402CB1
:1028100054088600023087004001450884004608BD
:1028200085001030CD004D0803191A2C12001E002F
:10283000CD0B162C40015408F9000230FA009B31F0
:10284000B223933140015408E5000230E6009B3189
:1028500015239331400146084201E100400145083B
:102860004201E00010304001C5070030C63D103085
:10287000CD004D08D4071030D1070030D23DF22BE7
:1028800053080319080054088600023087004001ED
:1028900045088400460885005308CD004D080319FB
:1028A000552C12001E00CD0B512C40015408F9008C
:1028B0000230FA009B31B223080000305001131A95
:1028C00001304001E800003050019319013040010F
:1028D000EA0000305001131901304001E9000030D6
:1028E0005001931801304001E600003050011318E8
:1028F00001304001E7000030031A0130EB000030E6
:1029000083190130ED00EC015001931F892C043034
:102910008C2C131F8E2C05304001DC2C40016808E4
:102920000319AE2C6A080319AE2C69080319AE2CE2
:102930006608031DAE2C6B080319A42C6D0803193F
:10294000A42CEC01EC0ADF2C6B08031DA92C02302F
:10295000DC2C6D08031DDF2C0330DC2C6708031D05
:10296000B32C0630DC2C6808031DB82C0730DC2C97
:102970006B08031DC02C6D08031DC02C0830DC2C17
:102980006B080319C82C6D08031DC82C0930DC2CFA
:102990006A08031DD02C6D080319D02C0B30DC2CD9
:1029A0006A08031DD82C6D08031DD82C0A30DC2CB6
:1029B0006908031DDF2C0C30E5006508EC003F3092
:1029C000500193004001831503166C080800400174
:1029D000C9003C080F39C2004208C800400803196A
:1029E000F82C4008F7000130F8008D314225943171
:1029F000400141080319012D41084201E000013066
:102A0000E1004001C601C7014608C2004708C300F3
:102A1000C401C5013F084502031D182D3E084402AC
:102A2000031D182D3D084302031D182D3C084202CA
:102A300003184E2D49088600870140013B08840099
:102A400085011030C200420803192A2D12001E0011
:102A5000C20B262D40014908E5000030E6009B31FD
:102A60001523943140014908F9000030FA009B31E8
:102A7000DE239431400149084201E0000030E100CA
:102A800010304001C2004208BB071030C2004208AB
:102A9000C9071030C6070030C73D042D4808031988
:102AA000080049088600870140013B088400850131
:102AB0004808C20042080319612D12001E00C20B13
:102AC0005D2D00304001E500E6004808C200C3016A
:102AD000C209C309C20A0319C30A4208103EE7002B
:102AE0000030433DE800490848079A31A12294315B
:102AF00040014908E5000030E6009B311523943180
:102B000040014908F9000030FA009B31DE2308003B
:102B10004001B1003108E5000030E6002508E8007A
:102B20002408E700E901EA01EA0A9C310C24953106
:102B30004001A9002908B00026080319B62D26086F
:102B4000E500FF39031D0030E6002808E8002708EB
:102B5000E7003008A9002908E900EA01EA0A9C31E7
:102B60000C2495314001AA002A08B000AA30A9001F
:102B70002908AB0027082407AE002808253DAF0030
:102B80002F08A9002908AC002E08A9002908AD00CB
:102B90002B30A9002908A0000130A1000030A200BC
:102BA0000230503E860001308700413F8A00403F9E
:102BB0000A0095312C304001A9002908A0000130FD
:102BC000A1000030A2000230503E86000130870094
:102BD000413F8A00403F0A0095312D304001A90055
:102BE0002908A0000130A1000030A2000230503EB0
:102BF000860001308700413F8A00403F0A0095313E
:102C000040013108A9002908A0002508A2002408D5
:102C1000A1000230503E860001308700413F8A000B
:102C2000403F0A009631400126080319292E260844
:102C3000A9002908A0002808A2002708A100023046
:102C4000503E860001308700413F8A00403F0A0025
:102C5000963130304001A9002908A0000130A100C0
:102C60000030A2000230503E860001308700413F14
:102C70008A00403F0A00963108009931E0219631E0
:102C800094315D2496314001E20062084201C100A6
:102C90004001E40101309A31392296314001650842
:102CA000E20062084201C300410803195B2E0730AD
:102CB0004106031D762E01304001E2006208420108
:102CC000C30703304302031C6F2EFF304001E200B4
:102CD0006208E50000309A31BC2296317A2E42011A
:102CE00043084001E2006208E5007C2E42014308EF
:102CF0000319802E4001E50101309A31BC22963142
:102D000002304001E2006208E500E601E60A003018
:102D10009F311227963102304001E2006208E5003F
:102D2000E601E60A00309F316127963134304001D8
:102D3000E200F130890B9A2EE20B9A2E003202301B
:102D40004001E2006208E500003092313E229631F7
:102D5000003A031DAD2E0130AE2E00304001E300DD
:102D600063084201BF0000309A3139229631400198
:102D70006508E20062084201C200C21BC12E013098
:102D8000C22E00304001E20062084201BE0042084B
:102D900001394001E20062084201C0003F08031D02
:102DA000D72E4008031DD72E9931A32196318430A8
:102DB0004201C6001930C7003A30C8001B30C900B4
:102DC0002230C4000A30C500FF30CA000730CB00F3
:102DD0005730CC000B30CD0044309A314C22963124
:102DE0004001A3010230E2006208A400A501A50A87
:102DF0002630A6001A30A7000230E3006308A800BE
:102E000002309E313A269631013099317C2196313B
:102E10009931742196318A312222963180310220F3
:102E200096310B2F790886007A0887004D3101080A
:102E30004001E5006508E800790886007A08870007
:102E400049310108E50079080D3EE60000307A3D81
:102E5000E700660886006708870065088100790832
:102E600086007A08870045310108E5007908093EA7
:102E7000E60000307A3DE7006608860067088700B4
:102E800065088100790886007A08870041310108C9
:102E9000E5007908053EE60000307A3DE700660867
:102EA000860067088700650881007908013EE50013
:102EB00000307A3DE60065088600660887006808ED
:102EC0008100790886007A08870042310108E50010
:102ED0006508E800790886007A0887004A31010809
:102EE000E5007908023EE60000307A3DE70066081A
:102EF0008600670887006508810079080A3EE500BA
:102F000000307A3DE600650886006608870068089C
:102F10008100790886007A08870046310108E500BB
:102F20006508E800790886007A0887004E310108B4
:102F3000E5007908063EE60000307A3DE7006608C5
:102F40008600670887006508810079080E3EE50065
:102F500000307A3DE600650886006608870068084C
:102F60008100790886007A08870043310108E5006E
:102F70006508E800790886007A088700473101086B
:102F8000E5007908033EE60000307A3DE700660878
:102F900086006708870065088100790886007A083E
:102FA00087004B310108E5007908073EE600003054
:102FB0007A3DE7006608860067088700650881009B
:102FC000790886007A0887004F310108E500790802
:102FD0000B3EE60000307A3DE70066088600670891
:102FE00087006508810079080F3EE50000307A3DD2
:102FF000E60065088600660887006808810008000A
:103000008331F32B8431332C8431072C84314A2CC7
:103010008431612C8431B02C8431BF2C8431D62C86
:103020008431DC2C8431F32C8431F92C8431FF2C55
:103030008531162D85311C2D8531222D84311D2C95
:103040008531282D85312E2D8531342D85313A2D30
:103050008531402D8531462D85318F2D86313C2E91
:103060008531A12D86313C2E8531B32D86313C2E04
:1030700086313C2E503461346934723420347334D8
:1030800075346334633465347334733400345634C4
:103090006F346934633465342034503472346F349F
:1030A0006D3470347434003450346F347734653494
:1030B00072346534643420344F34663466340034FA
:1030C000433461346C346C34203445346E346434AD
:1030D00065346434003450346F347734653472347A
:1030E0006534643420344F346E34003449346C34E5
:1030F0006C346534673461346C3420345034443477
:10310000003449346C346C346534673461346C3465
:10311000203454344F34003443346F346E346E34BE
:1031200065346334743465346434003450346F343B
:1031300077346534723420344F3466346634003466
:103140004E346F34203441346334743469346F3412
:103150006E3400344D3443345534203452346534A5
:103160007334653474340034423472346F347734D9
:103170006E3420344F347534743400349F316F2FE3
:103180009F31732F9F31772F9F317B2F9F317F2F5F
:103190009231412A9231502A92315F2A92316E2A1D
:1031A00092317D2A9F31202F9F31242F9F31282F4C
:1031B0009F312C2F9F31302F523465347334653456
:1031C0007234763465346434003457346134743482
:1031D0006334683464346F346734003450346F348B
:1031E00077346534723420344F346E3400345534BF
:1031F0004E344B344E344F3457344E340034503404
:10320000723465347034613472346534003450344F
:1032100061346934723469346E3467340034503444
:103220006C346134793469346E3467340034413439
:103230007534643469346F3449346E340034533433
:10324000743461346E346434623479340034553407
:103250006E346B346E346F3477346E3400345034E3
:103260006134753473346534643400344D3444341B
:1032700042344134323400344134323444345034F2
:10328000003454346F346E34653400345034433475
:103290004D340034533443344F340034FF3FFF3F48
:1032E000FF3FFF3FFF3FFF3F50309A310022080071
:1032F0000034AA340034AA344001E500650C031CF4
:103300008B1303188B17080040012108A300230822
:10331000E50020089231022208004001E50065081E
:10332000003E840090300318013E8500000808002C
:103330004001E5006508003E840091300318013E1D
:10334000850000080800003099317C217F01ED01E3
:103350004001E401E40AA331002B080040011F08EA
:103360001F3940389F001F08F0390D389F001E1686
:103370009E1708006400800101310130FE02003018
:10338000FF3B7F087E0403190034BB29FE001200B6
:103390001E000130FE020030FF3B7F087E0403194F
:1033A0000034C7294001B4003308A5003208A40046
:1033B000A6010030A700A800340895318825080030
:1033C0000630510193007C1091017E01E401D90186
:1033D000CE01C301B8019931AE2108004001E800D7
:1033E000E701681CF7296508E6006608E70703108F
:1033F000E50D0310E80C6808031DF12967080800B3
:103400004001B6000230B5003508B700B8013608F3
:10341000B5003508B9000330B2000030B3003730D2
:103420009931D221080050011E1340016608500155
:103430009B004001650850019A001E141D084001C0
:10344000E60050011C084001E500080042012E087A
:103450004101EC0042012D084101EB00420130081E
:103460004101EE0042012F084101ED0089312D217B
:1034700008004001E80050011E17F0309B00400199
:10348000680850019A001E141D084001E600500112
:103490001C084001E50008004001E6004201DC0193
:1034A000DD0140016608860001308700503084004D
:1034B000013085000C30E50016001A00E50B5C2A8F
:1034C00008004001EC001B30E9006908E5006C08C9
:1034D000EA000730EA36890B6A2A6A08013999310D
:1034E000EE214001EB006C356B06080050011E1305
:1034F0004001660850019B004001650850019A0098
:103500001E161E158B1355309F00AA309F009E1467
:103510008B179E1008004001B3001430B20032082F
:10352000B4003308B2003208B5000230A400003005
:10353000A500A6010030A700A800343095318825E9
:1035400008004001EB006B08E9006908EA0001305F
:10355000E7020030E83B670A0319680A031908000C
:103560006508E9006A088600870169088100013062
:10357000E9006908EA07A72A4001E60050011E1782
:103580001E15F0309B004001660850019A00400172
:10359000650850019C009D018B1355309F00AA3097
:1035A0009F009E149E18D22A8B179E18D52A0800B9
:1035B00040013308A1003208A0009B313A239A3120
:1035C00040016608A3006508A2009E31C5269A3115
:1035D000400135082102031DEF2A34082002031C94
:1035E000F32A0130080000300800133497345134B6
:1035F000BF34863472344C3410349C349634B23434
:1036000088347B3433349B34B2342B347E341534D9
:1036100016342834AE34D234A634AB34F7341534EF
:1036200088340934CF344F343C344001EC0110303D
:103630006C02031808006C08E700E8016708420103
:1036400060078600400168084201613D870001086B
:103650004001E9006C08EA00EB016A086507860092
:103660006B08663D8700690881060130E70067083E
:10367000EC07172B40011C08E7006708EC001D0849
:10368000E7006708ED006C08E700E8016D08E90055
:10369000EA016908EA00E90167086904EE006808C0
:1036A0006A04EF006E086F04031D5A2B0130EE0709
:1036B0000030EF3D6F08E6006E08E50008004001AD
:1036C000EC006730E7006708EA006608E800650874
:1036D000E700E50A0319E60A670884006808850020
:1036E0000008E9006908EB006B080319832B6B08DD
:1036F000E7006C0886008701670881000130E70059
:103700006708EC07652B6C088600870181010800BB
:103710004001ED006D0865020318A12B6D08E7005C
:10372000E801E709E809E70A0319E80A65086607F6
:10373000E900EA01EA0D67086907EB0068086A3DDD
:10374000AF2B6D08E700E801E709E809E70A03196C
:10375000E80A65086707EB0068080318680AEC00C8
:103760006B0808004001EE010A30923199229B312A
:1037700009304001ED006D08EE006E080319D42BEE
:10378000973112279B319F31B0279B3140016E0842
:10379000923199229B31933160239B31013040015A
:1037A000EE026E08031DC02B973112279B319F310B
:1037B000B0279B3100309231992208004001EE0180
:1037C0000030923199229B314001EE01EE0A0A301D
:1037D0006E020318022C8731AF279B3188313F20BE
:1037E0009B31863141269B3140016E0892319922EE
:1037F0009B3101304001ED006D08EE070A306E028A
:10380000031CEB2B8731AF279B3188313F209B3145
:103810000A3092319922080040016908EB006B08D8
:10382000ED00EE016E08EB00EC0168086C02031D70
:103830001B2C67086B0203182D2C6E08EB00EC01A3
:103840006B08650786006C08663D87000108ED027D
:103850000130EB006B08EE07122C6A0803193B2CB1
:103860006808EC006708EB006C08EB00EC016B08E3
:10387000ED026708ED026D0808004001BD0015303B
:103880003202031808000030E500E6000730E700C8
:103890000030E80036309A31A1229C3112304001CC
:1038A000B3003308B6003208B3003308BA00320858
:1038B000B3003308BC000730A4000030A5003D0869
:1038C000B3003308A6003208B400B5013408A700DD
:1038D0003508A8003630953188250800A00020085A
:1038E000BC0042089A3161229C319A3161229C319C
:1038F0004001A0002008BD0041089A3161229C319E
:103900009A3161229C319A3161229C319A31612233
:103910009C314001A0002008BE00E5013708993124
:10392000EE219C314001A00044089A3161229C3173
:103930009A3161229C319A31612240019C31D62C0E
:10394000A0002008B70044089A3161229C31400150
:10395000A0002008B80043089A3161229C319A31B6
:1039600061229C319A3161229C319A3161229C31D1
:103970004001A0002008B90043089A3161229C311F
:103980009A3161229C314001A0002008BA0042080F
:103990009A3161229C319A3161229C319A316122A3
:1039A0009C319A31612240019D31432DA100E501F6
:1039B00038089931EE219C314001A200E501390817
:1039C0009931EE219C314001220621062006440651
:1039D000A300E5013A089931EE219C314001A40091
:1039E00043089A3161229C319A3161229C319A318B
:1039F00061229C314001A50043089A3161229C312B
:103A00009A3161229C314001A600E5013B089931C1
:103A1000EE2140019D317D2D4001EF0042011E1538
:103A20009F1544309B009C0140012008EE006E0869
:103A3000E500E601E60A6F089F3112279D31420139
:103A40001E129D179E161D1610307E01A10040010A
:103A50006F08EE000230EE35FF3E031D2B2D6E3554
:103A600020077D01CB0040012108EE000230EE3539
:103A7000FF3E031D372D6E3522077D01CC000B174D
:103A80004E0199160800A0002008BB0041089A3199
:103A900061229D319A3161229D319A3161229D319D
:103AA0009A3161229D314001A0002008BC004108EC
:103AB0009A3161229D319A3161229D314001A000ED
:103AC0002008BD0041089A3161229D314001A000CB
:103AD0002008BE00E50137089931EE219D314001F3
:103AE000A00044089A3161229D319A3161229D31B2
:103AF0009A316122400180315D2826062506240680
:103B00004306A700E5013C089931EE219D314001B3
:103B1000A80042089A3161229D319A3161229D317B
:103B20009A3161229D314001A900E5013D0899319A
:103B3000EE219D314001AA0042089A3161229D3157
:103B400040012A06290628064206AB00E5013E0888
:103B50009931EE219D314001AC0041089A3161223A
:103B60009D319A3161229D319A31612240019D310E
:103B7000F92D40015F0886006008870001084101B7
:103B8000E1006108E80068089A318B228631122E24
:103B9000033040016106031D08005F0886006008CD
:103BA000870042310108031908005F088600600899
:103BB0008700423101084101E10061084201DD0056
:103BC000DC01DC0A080040015F088600600887000D
:103BD00042310108003A0319F62D013A0319F62D76
:103BE000033A0319F62D013A0319F62D86313C2EBE
:103BF0000800AD0041089A3161229D319A3161225D
:103C00009D314001AE0041089A3161229D31400151
:103C1000AF00E50141089931EE219D3140012F06A9
:103C20002E062D062C062B0627062306B00040087C
:103C3000B2003F08B100B135B20DB135B20D310857
:103C40007907B30032087A3DB4003308860034089F
:103C500087003008810044089A3161229D319A31F1
:103C600061229D319A3161229D319A316122400158
:103C70009C31A02C4001AC00B63086002D3087006E
:103C80000030C03FC13FB83086002D308700280883
:103C90008100B63086002D30870043312608C03FB2
:103CA0002708C13F3B3086002F30870081013C3020
:103CB00086002F30870081013D3086002F3087003D
:103CC00081013F3086002F30870081013E30860021
:103CD0002F30870081012308A9002908A0002408AB
:103CE000AA002A08A1002508AB002B08A2002C0876
:103CF0009D310C25080050011E151E139E16400113
:103D0000EB0120306B020318C12E660850019B00A6
:103D10004001650850019A0040016B356707E800D3
:103D20006808860002308700403FE900413FEA0012
:103D30006A0850019D0040016B356707E80068087C
:103D4000860002308700010850019C008B1355301B
:103D50009F00AA309F009E148B1701304001E50799
:103D60000030E63D1E306B06031DB82E50019E123A
:103D700001304001E8006808EB0720306B02031CAB
:103D8000852E50019E101E110800400121082302BB
:103D9000031DCC2E200822020318FA2E2008A400AE
:103DA0002108A500A601A701A409A509A609A7093C
:103DB000A40A0319A50A0319A60A0319A70A2208C7
:103DC000A8002308A900AA01AB012808A407290814
:103DD000A53D2A08A63D2B08A73DFF302407AE00CD
:103DE000FF30253DAF000030263DB0000030273DBC
:103DF000B100092F2009A4002109A500A40A031974
:103E0000A50A22082407AE002308253DAF00B00113
:103E1000B1012F08AD002E08AC002D08A1002C0820
:103E2000A00008004001E9000130E700650A192FF1
:103E3000E735890B182F6708E8006808EA00352F76
:103E40000030ED001130332F0030ED001230332FF1
:103E50000030ED001330332F0030ED001430332FDD
:103E60000030ED001530EC003F2F6908840005306C
:103E7000040203183F2F98310435D23E82006C08AB
:103E800086006D0887000108E7006708EB006608F8
:103E90000319542F6B086A04E7006C0886006D084C
:103EA00087006708810008006A09E7006708EB05DA
:103EB0006B08E8006C0886006D08870068088100C0
:103EC00008004001E9000130E700650A682FE73586
:103ED000890B672F6708E8006808EA00842F1F3005
:103EE000ED003930822F1F30ED004430822F1F301B
:103EF000ED004F30822F1F30ED005A30822F1F30DF
:103F0000ED006530EC008E2F690884000530040256
:103F100003188E2F98310435BE3E82006C0886004F
:103F20006D0887000108E7006708EB0066080319C1
:103F3000A32F6B086A04E7006C0886006D088700F1
:103F40006708810008006A09E7006708EB056B084D
:103F5000E8006C0886006D0887006808810008008A
:103F60004001E6010430660203180800E70104304E
:103F700067020318FB2F6608A000A1016708A200D2
:103F8000A301A235A30DA235A30D22087907A40031
:103F900023087A3DA5002008240786002108253D36
:103FA0008700010899318D219F314001A6006608E4
:103FB000A700A8016708A900AA01A935AA0DA9357B
:103FC000AA0D29087907AB002A087A3DAC0027081A
:103FD0002B07AD0028082C3DAE002D0886002E08CA
:103FE0008700260881000130A0002008E707043080
:103FF0006702031CBB2F0130A0002008E607B22F88
:104000008D34013402340434083410342034403404
:1040100080341B34363448344634503420346F34C2
:104020007234203448345334503420346C3469347E
:104030006E346B34203465347334743461346234D8
:104040006C3469347334683465346434203428340F
:1040500069346E34763461346C34693464342034B9
:104060006534763465346E34743420347334743487
:104070006134743475347334293400345034613409
:104080006934723469346E34673420346634613490
:1040900069346C3465346434203464347534653484
:1040A000203474346F34203475346E346B346E3491
:1040B0006F3477346E3420346634613469346C3450
:1040C00075347234653400344234543420346334EB
:1040D0006C3461347334733469346334203453344E
:1040E0005034503420346C3469346E346B342034A2
:1040F000653473347434613462346C3469347334C9
:104100006834653464340034503461346934723452
:1041100069346E34673420346634613469346C3405
:104120006534643420346434753465342034743434
:104130006F342034743469346D34653420346F3412
:104140007534743400345334503450342F3469345B
:104150004134503420346C3469346E346B34203440
:1041600064346934733463346F346E346E3465345C
:104170006334743465346434003441345634523416
:104180004334503420346C3469346E346B3420340E
:1041900064346934733463346F346E346E3465342C
:1041A000633474346534643400344D3441345034F1
:1041B00020346F347034653472346134743469344B
:1041C0006F346E34203466346F3472346234693440
:1041D0006434643465346E3400345034613469348A
:1041E000723469346E34673420342834443469348A
:1041F000733463346F3476346534723461346234CA
:104200006C346534293400344134563452344334E8
:10421000503420346C3469346E346B34203465345B
:1042200073347434613462346C3469347334683494
:1042300065346434003441343234443450342034EE
:104240006C3469346E346B342034643469347334C0
:1042500063346F346E346E3465346334743465346F
:1042600064340034413432344434503420346C34B7
:1042700069346E346B34203465347334743461348F
:1042800062346C34693473346834653464340034B3
:10429000413443344C3420346C3469346E346B34E0
:1042A000203464346934733463346F346E346E3460
:1042B00065346334743465346434003453344334C3
:1042C0004F3420346C3469346E346B3420346434AD
:1042D0006934733463346F346E346E3465346334EC
:1042E00074346534643400344D34413450342034F3
:1042F0006C3469346E346B34203464346934733410
:1043000063346F346E346E346534633474346534BE
:1043100064340034413443344C3420346C346934D4
:104320006E346B34203465347334743461346234E5
:104330006C34693473346834653464340034533411
:1043400043344F3420346C3469346E346B3420344D
:10435000653473347434613462346C346934733466
:1043600068346534643400344D344134503420347E
:104370006C3469346E346B34203465347334743483
:10438000613462346C346934733468346534643451
:10439000003469344134503420346C3469346E3420
:1043A0006B342034653473347434613462346C3467
:1043B00069347334683465346434003448344634C2
:1043C000503420346C3469346E346B3420346534AA
:1043D00073347434613462346C34693473346834E3
:1043E00065346434003448345334503420346C34ED
:1043F00069346E346B34203465347334743461340E
:1044000062346C3469347334683465346434003431
:104410004834463420346C3469346E346B34203480
:1044200064346934733463346F346E346E34653499
:104430006334743465346434003450346134693422
:10444000723469346E3467342034533475346334D1
:104450006334653473347334663475346C340034C7
:1044600052346534733465347434203449346E34D2
:1044700073347434723475346334743469346F341F
:104480006E340034503461346934723469346E34BB
:10449000673420346634613469346C346534643490
:1044A00020340034413432344434503420345634CF
:1044B0006F346C3420346334683461346E34673460
:1044C000653400344D34433455342034523465342B
:1044D000733465347434203453346C346534653447
:1044E0007034003453347434613463346B342034A6
:1044F00075346E3464346534723466346C346F34BD
:1045000077340034483446345034203456346F34D1
:104510006C3420346334683461346E346734653409
:10452000003452347834203450346134723473346B
:10453000653420344534723472346F34723400344C
:1045400049346E3474346534723472347534703472
:1045500074342034573461346B346534003453344C
:104560007434613463346B3420346F34763465349E
:10457000723466346C346F347734003443346134CD
:104580006C346C34203449346E3463346F346D349D
:1045900069346E34673400345734613474346334AE
:1045A000683464346F3467342034573461346B3486
:1045B0006534003444346934733463346F346E3496
:1045C0006E34653463347434653464340034503488
:1045D00061346934723420346634613469346C3443
:1045E0007534723465340034433461346C346C3463
:1045F000203441346334743469347634653400349F
:064600000000A3310A2BAB
:104608007E14A331B93197217E100900A3310C2BF8
:1046180078308400BA3085000F3086002D3087004E
:104628000030FF007830A731F327A331A8310020EC
:10463800A331FA00A8310120A331FB000230840025
:10464800CD308500D3308600003087000030FF0071
:104658000830A731F327A33100308400CE3085001D
:1046680046308600013087000030FF001430A73143
:10467800F327A331873084002D3085006930FE0090
:104688000230FF00CD314C25A331F601F701F801C6
:10469800F901C5308400003085000E30FE0000307E
:1046A800FF00CD314C25A331203084000130850036
:1046B8002630FE000030FF00CD314C257E10400131
:1046C800A331662BCD317425A331BC317024A331BD
:1046D8004001E20062084301A0004101580843017B
:1046E800A200410157084301A100410156084301B6
:1046F800A400410155084301A300410154084301A6
:10470800A600410153084301A5004201470843019F
:10471800A800420146084301A7004001E601E7015D
:10472800E70A0330C631F826A3314001E601E70164
:104738000330C631A126A33134304001E200F13004
:10474800890BA42BE20BA42B003243012208400161
:10475800A500430121084001A400430124084001A9
:10476800A700430123084001A60043012608400191
:10477800A900430125084001A80043012808400179
:10478800AB00430127084001AA00A9314021A33109
:104798000A304301AD004D30AE00B530AF004F30A8
:1047A800B000B230AB003630AC00B530B1003530B7
:1047B800B2005B30B3003F30B4009030B500313008
:1047C800B600AB30CE312926A33106304001E200D5
:1047D8006208E600E701E70A0030C631F826A3318F
:1047E80006304001E2006208E600E701E70A00300F
:1047F800C631A126A3314001A4010230E2006208BB
:10480800A500A601A60A3430A7004D30A800023042
:10481800E3006308A9000230C331A223A3310130A9
:10482800CC31FA24A3311E304001A0002F30A10062
:10483800A2010230E2006208A300A401A501A50AB2
:104848002830A6000030A700A801A80AA630A900B1
:104858004730AA00BE311C26A3311E304001E600B5
:104868002F30E700E830E8000330E900CD31292592
:10487800A33193304001A0002F30A1000330E200A3
:104888006208A2000530E3006308A300A401A501A3
:104898000030A600A700A801A80A6B30A9003B3089
:1048A800AA00BE311C26A3312B304001AB002F30AB
:1048B800AC00AD01AE01AE0AAF01B001B00A0030E4
:1048C800B100B200C531F925A33136304001AB0043
:1048D8002F30AC000430E2006208AD00AE01AF0139
:1048E8000230E3006308B0000030B100B200C53107
:1048F800F925A33141304001E6002F30E7001C3094
:10490800E8003330E900CD318225A3314130400140
:10491800A4002F30A500DC30A6000530A700CE315A
:10492800E626A33148304001E6002F30E7001C306E
:10493800E8003330E900CD318225A3314830400109
:10494800A4002F30A5004030A6000630A700CE31C5
:10495800E626A3314F304001E6002F30E7001C3037
:10496800E8003330E900CD318225A33156304001CB
:10497800E6002F30E7001C30E8003330E900CD3185
:104988008225A3315D304001E6002F30E7001C305E
:10499800E8003330E900CD318225A3316630860046
:1049A8002F3087008101643086002F308700810115
:1049B800693086002F3087000030C03FC13F6B3020
:1049C80086002F30870081016E3086002F308700E7
:1049D8008101703086002F308700810167308600A2
:1049E8002F3087000030C03FC13F723086002F3023
:1049F80087008101733086002F3087008101743071
:104A080086002F3087008101753086002F3087009F
:104A18008101763086002F3087007F308100773023
:104A280086002F3087000F308100783086002F30C5
:104A380087008101713086002F3087001E30810089
:104A48006C3086002F30870081016D3086002F3052
:104A5800870081010230CD31D925A3314001660894
:104A6800C4317024A331522D06304001E20062089F
:104A7800B3000430E3006308B400B1319021A331DE
:104A8800672D06304001E2006208B3000230E300FF
:104A98006308B400B1319021A331672D6F308600CF
:104AA8002F30870001084001E200E3016308003A63
:104AB80003195F2D672D6208003A0319382D013A52
:104AC8000319452D672D06304001E2006208E60013
:104AD8000030B9313421A331003A031D852D6C30E3
:104AE80086002F3087000130810056304001A40035
:104AF8002F30A5005830A6000230A700CE31E62698
:104B0800A3311E304001CF002F30D000AA31AA2295
:104B1800A33141304001C1002F30C200C231FE2212
:104B2800A33148304001C1002F30C200C231FE22FB
:104B3800A3314F304001C1002F30C200C231FE22E4
:104B4800A33156304001C1002F30C200C231FE22CD
:104B5800A3315D304001C1002F30C200C231FE22B6
:104B6800A331663086002F30870003300106031D0D
:104B7800F72D79304001CF002F30D000AA31AA227A
:104B8800A33193304001CF002F30D000AA31AA22A0
:104B9800A33186304001CF002F30D000AA31AA229D
:104BA800A331A0304001CF002F30D000AA31AA2273
:104BB800A331AD304001CF002F30D000AA31AA2256
:104BC800A331BA304001B6002F30B700A8313E20DB
:104BD800A331C5304001B6002F30B700A8313E20C0
:104BE800A331D030402E663086002F308700023047
:104BF8000106031D472E93304001CF002F30D0000F
:104C0800AA31AA22A33186304001CF002F30D0002C
:104C1800AA31AA22A331A0304001CF002F30D00002
:104C2800AA31AA22A331B8304001B6002F30B7000C
:104C3800A8313E20A331C3304001B6002F30B70061
:104C4800A8313E20A331AD304001B6002F30B70067
:104C5800A8313E20A331CE304001B6002F30B70036
:104C6800A8313E20A331D9304001B6002F30B7001B
:104C7800A8313E20A331E4304001B6002F30B70000
:104C8800A8313E20A331663086002F3087000230DD
:104C980001060319562E663086002F30870001035F
:104CA800031D5E2E79304001CF002F30D000AA318D
:104CB800AA22A331CF31B527A331400167084301A8
:104CC800AA00400166084301A900663086002F301B
:104CD80087000103031DCE2E673086002F30870022
:104CE800160001040319CE2E673086002F30870086
:104CF800403F4001A400413FA50043012A0840016C
:104D0800A700430129084001A600C431BB24A331F0
:104D1800083040012502993003192402031CCE2EC5
:104D28006C3086002F3087000108031DCE2E00301E
:104D3800C031F720A331673086002F30870000305C
:104D4800C03FC13FEF3086002F3087008101AD3072
:104D58004001AB002F30AC00EF3086002F308700C9
:104D68000108E200E3016208AD006308AE00B83153
:104D78001B20A3311F304001E3007130E2001E30D8
:104D8800890BC42EE20BC42EE30BC42E0000B831ED
:104D98000320A331693086002F30870016000104F4
:104DA8000319FE2E693086002F308700403F4001EE
:104DB800A400413FA50043012A084001A700430180
:104DC80029084001A600C431BB24A33101304001A9
:104DD8002502F53003192402031CFE2EDB30860061
:104DE8002F3087008101693086002F30870000301E
:104DF800C03FC13FB631B226A331C331E323A3314B
:104E0800B8310120A331852D41012108B0002008C7
:104E1800AF002308AC002208AB0000302C0206309B
:104E280003192B02031C08002F088600300887008E
:104E38000108031DDA2F2F0886003008870041314A
:104E4800AA300106031DDA2F0230AF070030B03D4B
:104E58000230AB020030AC3B2F08860030088700D8
:104E680041310108A400A5012F08860030088700F9
:104E78000108A600A7012608A700A6012408260401
:104E8800AD0025082704AE002D08033EA40000301D
:104E98002E3DA50025082C02031D542F24082B02A3
:104EA800031CC12F30084001E70041012F084001D1
:104EB800E60041012D08023E4001E80000304101B2
:104EC8002E3D4001E900EA01EB01C2310222A7317F
:104ED8004101A4002408A9002D08023EA4000030C6
:104EE8002E3DA50024082F0786002508303D8700A1
:104EF8000108A6002608AA0029082A06031DB12FC2
:104F08000230AF070030B03D0230AB020030AC3B9E
:104F180030084001D60041012F084001D500410169
:104F28002D08A40024084001D700AC31C324A731C0
:104F380041012D08013EA40000302E3DA5002408A3
:104F4800AF072508B03D2D08013EA40000302E3DD6
:104F5800A5002408AB022508F12F1030A40024086E
:104F68004001C200C3010630C53E86008701413FAB
:104F78008A00403F0A00A731D02F1030A40024082F
:104F88004001C200C3010630C53E86008701413F8B
:104F98008A00403F0A00A73101304101AF020030CA
:104FA800B03B0130AB070030AC3D112F1030A400EE
:104FB80024084001C200C3010630C53E86008701AF
:104FC800413F8A00403F0A00A73101304101AF0745
:104FD8000030B03D0130AB020030AC3B112FFE0079
:104FE80012001E000130FE020030FF3B7F087E04E5
:104FF80003190034F42F08000034AA344001A0003B
:10500800A1016608210203183B2821082007E700B0
:105018006708860087010108E8000F3086002F30F6
:1050280087000108E900EA018C30EB002E30EC0023
:1050380069086B07ED006A086C3DEE006D08860094
:105048006E088700680881000F3086002F308700BF
:105058000108013E7F39E7000F3086002F308700B6
:10506800670881000130E7006708A10705284E019D
:1050780019160800CF31B527A83140016708BB00D1
:105088006608BA00360886003708870046310103EB
:10509800031D862836088600370887004731403FB9
:1050A800B800413FB9003608860037088700443108
:1050B800403FA400413FA5003B08A7003A08A600CE
:1050C800C431BB24A831400139082502031D6E28CC
:1050D80038082402031C86283708A5003608A400CF
:1050E800A601A60AB031352040013608063EB800B0
:1050F8000030373DB900380886003908870002308B
:1051080081000800360886003708870046310230DB
:105118000106031DC0283608860037088700493174
:10512800403FB800413FB90036088600370887007D
:105138004431403FA400413FA5003B08A7003A087E
:10514800A600C431BB24A831400139082502031D3B
:10515800AF2838082402031CC0283708A5003608E1
:10516800A400A601B0313520400136088600370872
:105178008700463181010800360886003708870015
:10518800463104300106031DFF283608860037081B
:1051980087004931403FB800413FB90036088600D2
:1051A800370887004431403FA400413FA5003B0831
:1051B800A7003A08A600C431BB24A8314001390829
:1051C8002502031DE92838082402031CFF28360895
:1051D800063EB8000030373DB90038088600390867
:1051E8008700053081003708A5003608A400A6010D
:1051F800B03135200800400136088600370887009E
:10520800463105300106031D0800360886003708B8
:1052180087004931403FB800413FB9003608860051
:10522800370887004431403FA400413FA5003B08B0
:10523800A7003A08A600C431BB24A83140013908A8
:105248002502031D292938082402031C08003608F2
:10525800063EB8000030373DB900380886003908E6
:105268008700043081003708A5003608A400A6018D
:10527800A60AB0313520080040012B08AC002C08E4
:10528800E600E7012A08C7314F27A93140012B085A
:10529800AC002C08E600E7012A08C631F826A93137
:1052A80034304001AC00F130890B5829AC0B582937
:1052B800003240012908AC002C08E600E701280864
:1052C800C7314F27A93140012908AC002C08E60056
:1052D800E7012808C631F826A93134304001AC006E
:1052E800F130890B7529AC0B7529003240012B0868
:1052F800AC002C08E600E701E70A2A08C7314F2767
:10530800A93134304001AC00F130890B8929AC0B4C
:105318008929003240012508AC002C08A000260885
:10532800AD002D08A1002708AE002E08A200240811
:10533800BB31ED23A93140012908AC002C08E60057
:10534800E701E70A2808C631F826A9314830CE31E6
:105358001426A93133304001AC002C08AF000530C9
:10536800AC002C08E6002F30E7000030E800E90127
:10537800E90A1230B8317620A9310130C2316422ED
:10538800A9314001AF010230AC002C08E6002F30F3
:10539800E7000030E800E901E90A1230B831762068
:1053A800A93104304001AC002C08AF00E601E60A40
:1053B8002F30E7000030E800E901E90A1230B8317F
:1053C8007620A93140304001AC002C08AF00E6013E
:1053D8002F30E7000030E800E901E90A1230B8315F
:1053E8007620A9310B304001AC006230890BFA29D4
:1053F800AC0BFA2900000130CE31AE26A9310530B8
:105408004001AC002C08AF00E601E60A2F30E700A7
:105418000030E800E901E90A1230B8317620A931F4
:1054280006304001AC003030890B182AAC0B182A22
:10543800000044304001AC002C08AF00E6012F30DA
:10544800E7000030E800E901E90A1230B8317620B7
:10545800A93198304001AC002C08AF000230AC00F4
:105468002C08E6002F30E7000030E800E901E90ADF
:105478001230B8317620A93107304001AC002C0831
:10548800AF00E601E60A2F30E7000030E800E90146
:10549800E90A1230B8317620A93134304001AC0025
:1054A800F130890B552AAC0B552A0032E430400103
:1054B800AC002C08AF000430AC002C08E6002F30FC
:1054C800E7000030E800E901E90A1230B831762037
:1054D800A93102304001AC002C08AF001D30AC00EF
:1054E8002C08E6002F30E7000030E800E901E90A5F
:1054F8001230B8317620A9314001AF010D30AC002F
:105508002C08E6002F30E7000030E800E901E90A3E
:105518001230B8317620A93147304001AC002C0850
:10552800AF00E6012F30E7000030E800E901E90AA2
:105538001230B8317620A93134304001AC00F13056
:10554800890BA42AAC0BA42A0032080040014F089A
:105558008600500887004C31011B08004F08860060
:105568005008870041310108D1005108E6004F0872
:105578008600500887000108B9313421AA3140015A
:10558800D2005208D500D401D40A55080319D32AE9
:105598004F088600500887004C310118DD2A55084D
:1055A800031DDC2A4F088600500887004C3101187B
:1055B800D40154080319E22A0130E32A0030D1004B
:1055C8005108D3005308031DD52BA72CCF31B5277D
:1055D800AA3140014F08860050088700423166080A
:1055E800C03F6708C13F4F08860050088700463112
:1055F800160001040319112B4F0886005008870074
:105608004C31811D112B4F088600500887004C3102
:105618000108F9390238810008004F08860050084F
:1056280087004C310108F939043881004F08860099
:10563800500887004C3181125008C7004F08C60037
:10564800C801C80A0030C900CA004F0886005008BF
:1056580087004831413F8A00403F0A00AB310800CB
:1056680040014F088600500887004C31811D782B77
:105678004F088600500887004231403FB600413F3E
:10568800B7004F088600500887004631403FB800F1
:10569800413FB900CF313A27AA31003A031908002F
:1056A80040014F088600500887004C310108F9393D
:1056B800043881004F088600500887004C31811259
:1056C8005008C7004F08C600C801C80A0030C90002
:1056D800CA004F088600500887004831413F8A00B9
:1056E800403F0A00AB31080040014F0886005008CF
:1056F80087004C310108F939043881004F088600C9
:10570800500887004C31811208004F088600500865
:1057180087004A3116000104031908004F08860063
:10572800500887004C31811A08004F08860050083D
:1057380087004231403FB600413FB7004F0886001E
:10574800500887004A31403FB800413FB900CF3187
:105758003A27AA31003A0319080040015008C70047
:105768004F08C6000230D1005108C8004F08860013
:10577800500887004A31403FC900413FCA004F08DE
:105788008600500887004831413F8A00403F0A00A0
:10579800AB3140014F088600500887004C31811614
:1057A80008004F088600500887004C31010C033967
:1057B800D100D2015208003A0319E32BC22C510838
:1057C800003A0319EA2A013A0319342B033A031958
:1057D800892BC22C08004F088600500887004C31DE
:1057E8008119432C4F088600500887004431403FF8
:1057F800B600413FB7004F08860050088700463181
:10580800403FB800413FB900CF313A27AA31003AAA
:105818000319080040014F088600500887004C31E2
:10582800F93081054F088600500887004231403F13
:10583800A400413FA500CF31B527AA314001670830
:10584800A7006608A600C431BB24AA314001250878
:10585800D7002408D6005008C7004F08C600C80162
:105868005708CA005608C9004F0886005008870024
:105878004831413F8A00403F0A00AC3108004001EE
:105888004F088600500887004C31F9308105080020
:10589800CF31B527AA3140014F088600500887004C
:1058A80044316608C03F6708C13F4F08860050086A
:1058B80087004631160001040319732C4F0886002F
:1058C800500887004C318119732C4F088600500806
:1058D80087004C310108F9390238810008004F0867
:1058E8008600500887004C31F93081054F08860042
:1058F800500887004231403FA400413FA500CF3106
:10590800B527AA3140016708A7006608A600C43178
:10591800BB24AA3140012508D7002408D600500826
:10592800C7004F08C600C8015708CA005608C90072
:105938004F088600500887004831413F8A00403FA1
:105948000A00AC31080040014F0886005008870063
:105958004C31010C0339D100D2015208003A031925
:10596800B62CC22C5108003A0319C22C013A03196B
:10597800EF2B033A03194C2CC22C080008004001F5
:1059880055088600560887000108D8005808DF0027
:105998005F08CE316A26AC31CD2F0330400157065F
:1059A800031D080055088600560887004231010883
:1059B8000319080055088600560887004231010877
:1059C800D80058084101D200D101D10A080003309B
:1059D80040015706031D0800550886005608870031
:1059E80041310108D8005808B30055088600560808
:1059F800870042310108D9005908B4000A30C53E71
:105A080086008701413F8A00403F0A00AD31080007
:105A18004001550886005608870042310108D80021
:105A2800D9015908003A03191A2DFF2F5808003ACE
:105A38000319FF2F013A0319FF2F033A0319FF2F08
:105A4800013A0319FF2FFF2F08004001550886006F
:105A58005608870041310108D800D9015908003A91
:105A68000319372DFF2F5808003A03190C2DFF2F63
:105A780008000E30D8005808C2005508860056089D
:105A8800870042310108D9005908C3000630C53ED5
:105A980086008701413F8A00403F0A00AD31080077
:105AA800033040015706031D08000F30D80058087E
:105AB800C200550886005608870042310108D900FF
:105AC8005908C3000630C53E86008701413F8A0059
:105AD800403F0A00AD3108000E3040015706031D53
:105AE8000800550886005608870042310D30010627
:105AF800031D080055088600560887000108031989
:105B08000800A52D0A30D8005808C200C301063085
:105B1800C53E86008701413F8A00403F0A00AD31FB
